:020000040000fa
:080000000002040000000000f2
:020000040000fa
:04000800600900008b
:020000040000fa
:04000c006009000087
:020000040000fa
:040010006009000083
:020000040000fa
:04001400600900007f
:020000040000fa
:04001800600900007b
:020000040000fa
:04001c006009000077
:020000040000fa
:040020006009000073
:020000040000fa
:04002400600900006f
:020000040000fa
:040028002a030000a7
:020000040000fa
:04002c006009000067
:020000040000fa
:040030006009000063
:020000040000fa
:04003400600900005f
:020000040000fa
:04003800600900005b
:020000040000fa
:04003c006009000057
:020000040000fa
:040040006009000053
:020000040000fa
:04004400600900004f
:020000040000fa
:04004800600900004b
:020000040000fa
:04004c006009000047
:020000040000fa
:040050006009000043
:020000040000fa
:040054008e04000016
:020000040000fa
:04005800500900004b
:020000040000fa
:04005c006009000037
:020000040000fa
:040060006009000033
:020000040000fa
:04006400600900002f
:020000040000fa
:04006800600900002b
:020000040000fa
:04006c006009000027
:020000040000fa
:040070006009000023
:020000040000fa
:04007400600900001f
:020000040000fa
:040078004a03000037
:020000040000fa
:04007c006009000017
:020000040000fa
:040080006009000013
:020000040000fa
:04008400600900000f
:020000040000fa
:04008800600900000b
:020000040000fa
:04008c006009000007
:020000040000fa
:040090006009000003
:020000040000fa
:0400940060090000ff
:020000040000fa
:0400980060090000fb
:020000040000fa
:04009c0060090000f7
:020000040000fa
:0400a00060090000f3
:020000040000fa
:0400a40060090000ef
:020000040000fa
:0400a80060090000eb
:020000040000fa
:0400ac0056090000f1
:020000040000fa
:0400b00060090000e3
:020000040000fa
:0400b40060090000df
:020000040000fa
:0400b80060090000db
:020000040000fa
:0400bc0060090000d7
:020000040000fa
:0400c00060090000d3
:020000040000fa
:0400c40060090000cf
:020000040000fa
:0400c80060090000cb
:020000040000fa
:0400cc0060090000c7
:020000040000fa
:0400d00060090000c3
:020000040000fa
:0400d40060090000bf
:020000040000fa
:0400d80060090000bb
:020000040000fa
:0400dc0060090000b7
:020000040000fa
:0400e00060090000b3
:020000040000fa
:0400e40060090000af
:020000040000fa
:0400e80060090000ab
:020000040000fa
:0400ec0060090000a7
:020000040000fa
:0400f00060090000a3
:020000040000fa
:0400f400600900009f
:020000040000fa
:0400f800600900009b
:020000040000fa
:0400fc006009000097
:020000040000fa
:040100006009000092
:020000040000fa
:04010400600900008e
:020000040000fa
:04010800600900008a
:020000040000fa
:04010c006009000086
:020000040000fa
:040110006009000082
:020000040000fa
:04011400600900007e
:020000040000fa
:04011800600900007a
:020000040000fa
:04011c006009000076
:020000040000fa
:040120006009000072
:020000040000fa
:04012400600900006e
:020000040000fa
:04012800600900006a
:020000040000fa
:04012c006009000066
:020000040000fa
:040130006009000062
:020000040000fa
:04013400600900005e
:020000040000fa
:04013800600900005a
:020000040000fa
:04013c006009000056
:020000040000fa
:040140006009000052
:020000040000fa
:04014400600900004e
:020000040000fa
:04014800600900004a
:020000040000fa
:04014c006009000046
:020000040000fa
:040150006009000042
:020000040000fa
:04015400600900003e
:020000040000fa
:04015800600900003a
:020000040000fa
:04015c006009000036
:020000040000fa
:040160006009000032
:020000040000fa
:04016400600900002e
:020000040000fa
:04016800600900002a
:020000040000fa
:04016c006009000026
:020000040000fa
:040170006009000022
:020000040000fa
:04017400600900001e
:020000040000fa
:04017800600900001a
:020000040000fa
:04017c006009000016
:020000040000fa
:040180006009000012
:020000040000fa
:04018400600900000e
:020000040000fa
:04018800600900000a
:020000040000fa
:04018c006009000006
:020000040000fa
:040190006009000002
:020000040000fa
:0401940060090000fe
:020000040000fa
:0401980060090000fa
:020000040000fa
:04019c0060090000f6
:020000040000fa
:0401a00060090000f2
:020000040000fa
:0401a40060090000ee
:020000040000fa
:0401a80060090000ea
:020000040000fa
:0401ac0060090000e6
:020000040000fa
:0401b00060090000e2
:020000040000fa
:0401b40060090000de
:020000040000fa
:0401b80060090000da
:020000040000fa
:0401bc0060090000d6
:020000040000fa
:0401c00060090000d2
:020000040000fa
:0401c40060090000ce
:020000040000fa
:0401c80060090000ca
:020000040000fa
:0401cc0060090000c6
:020000040000fa
:0401d00060090000c2
:020000040000fa
:0401d40060090000be
:020000040000fa
:0401d80060090000ba
:020000040000fa
:0401dc0060090000b6
:020000040000fa
:0401e00060090000b2
:020000040000fa
:0401e40060090000ae
:020000040000fa
:0401e80060090000aa
:020000040000fa
:0401ec0060090000a6
:020000040000fa
:0401f00060090000a2
:020000040000fa
:0401f400600900009e
:020000040000fa
:0401f800600900009a
:020000040000fa
:0401fc006009000096
:020000040000fa
:040200006009000091
:020000040000fa
:04020400600900008d
:020000040000fa
:040208006009000089
:020000040000fa
:04020c006009000085
:020000040000fa
:040210006009000081
:020000040000fa
:04021400600900007d
:020000040000fa
:040218006009000079
:020000040000fa
:04021c006009000075
:020000040000fa
:040220006009000071
:020000040000fa
:04022400600900006d
:020000040000fa
:040228006009000069
:020000040000fa
:04022c006009000065
:020000040000fa
:040230006009000061
:020000040000fa
:04023400600900005d
:020000040000fa
:040238006009000059
:020000040000fa
:04023c006009000055
:020000040000fa
:040240006009000051
:020000040000fa
:04024400600900004d
:020000040000fa
:040248006009000049
:020000040000fa
:04024c006009000045
:020000040000fa
:040250006009000041
:020000040000fa
:04025400600900003d
:020000040000fa
:040258006009000039
:020000040000fa
:04025c006009000035
:020000040000fa
:040260006009000031
:020000040000fa
:04026400600900002d
:020000040000fa
:040268006009000029
:020000040000fa
:04026c006009000025
:020000040000fa
:040270006009000021
:020000040000fa
:04027400600900001d
:020000040000fa
:040278006009000019
:020000040000fa
:04027c006009000015
:020000040000fa
:040280006009000011
:020000040000fa
:100400002ff821000eff27000e01880000000000d9
:10041000000020000000e000020032000001200087
:100420002002880014000700010407000000e0001b
:1004300003003a00a0dd2800010020000200370080
:100440000000200001002000810f70000100320038
:100450000f000700000020000000e0000200320052
:100460000000020000000000fa530200000000003b
:100470000040da000000fe00801020000000e000d4
:1004800002003200002020009001880000000600d9
:10049000a1028800800478000000eb001f003700f4
:1004a000e284440054a0b4009905ba00e2844400f8
:1004b00054a0b4009906ba00e284440054a0b400e9
:1004c0000006eb00476fde00fd07b200ae018800ba
:1004d000636ce10003003a000ad801000000eb0061
:1004e0000e003700606ce10008003a00004deb00a0
:1004f0000a05e800020039003420ec000af0a000f0
:100500008b05e900f9ff3e00040037006168e10057
:10051000010032000086eb000b00070019c7ba008b
:100520000e04e0001905ba0003003a000a00e000da
:10053000dbff3a0000000600fe07b200ae028800b2
:100540008a047800f5ff37000cd0a300e20f4d00bd
:100550001c00390089027800354dba000a05e80010
:10056000020039003420ec000af0a0008b05e900fd
:100570000f003200254dba000a05e80002003900dc
:100580003420ec000af0a0008b05e90008003200de
:100590000c00e0000600320015cdba000a05e800a4
:1005a000020039003420ec000af0a0008b05e900bd
:1005b0008984e80054a0b4000b00e000e2ff3a0098
:1005c000000006009902ba00055d78008b05e9007d
:1005d000f7ff3200c82ade00055d78008b05e900d0
:1005e000f3ff32000c00e000f1ff320019ddba0029
:1005f000eeff3700e8700400000000000a730400fa
:100600000000000030720400000000008c7a04003a
:100610000000000018730400000000009e74040035
:10062000000000006479040000000000c6790400a6
:1006300000000000788e040000000000928e04008c
:10064000000000009a8e040000000000728e04007a
:10065000000000003600f800809fbe00829fbe00b0
:10066000849fbe00869fbe000000fa000008a9001b
:1006700030072000c70307000080fa004f03be00c8
:100680004f02be004f01be004f00be003600f90011
:10069000004006003600f800809fbe00829fbe002a
:1006a000849fbe00869fbe000000fa000288a90059
:1006b00070c0b300e13d07008080fb000004200013
:1006c000008060000000e0008c00320001c7b30031
:1006d00070c2b3000f3e070050c380004500dd002c
:1006e00080007800607421000080400002c2b300e6
:1006f0008000780010c6b300b63d070050c38000ec
:100700000000e80050c3880070c0b300cb3d070074
:100710000080fb006e0060000080d1008040780007
:100720001088210001487800707421001040780082
:100730000000fb000000e90061742100008040001f
:1007400090407800c0f32100104078000000fb00ca
:10075000120020000010dd000040780080c0600022
:1007600040542100014878002088210011c0b300c6
:100770000148780010882100104078000004e00053
:1007800007003a0040542100104078000004e000c7
:1007900003003a00208821008040eb0001487800e7
:1007a0002088210010407800e14f500053003a00ab
:1007b00040c380000000e00009003a00807421007e
:1007c00010407800804078006033210001487800b4
:1007d00060332100104078000080fb002011880069
:1007e00040c380000002b00040c388007074210044
:1007f000104078008000fb0040c38000808f5000d4
:100800003e003e007033210011c0b3000148780063
:100810000000eb0040c388000000eb0050c38800dc
:1008200060332100104078000080fb00710420003c
:10083000810f50000e00320081042000810f500013
:1008400011003200e10f500024003a0080332100f3
:1008500051c0b30001487800703321008040eb00a4
:100860000148780010002000201188001b0037008c
:1008700090742100104078008040780020342100de
:1008800001487800150037008033210010407800bf
:10089000e44f500004003a008033210031c0b3001f
:1008a000014878000d0037008033210010407800a7
:1008b000e34f5000040032008033210010407800e4
:1008c0000004e00004003a00803321008040eb0087
:1008d0000148780001003700000000000041eb00f3
:1008e0008000eb0010ceb300693d07000041eb0033
:1008f0008000eb0020ceb300653d0700473f0700b6
:100900000080fa004f03be004f02be004f01be0040
:100910004f00be003600f900004006003600f80027
:10092000809fbe00829fbe00849fbe00869fbe0047
:100930000800fa000000eb00000f78000000eb0058
:10094000100798000040eb004047980030118000ed
:1009500030079800a088210010407800e14f500037
:100960009e003a000000eb00000f78000500370001
:10097000605421001e0040008040eb0001487800d8
:100980001e0fe8001e007800ff0f5000f8ff340033
:10099000508621008040eb0001487800be009000a6
:1009a000d00f2000808f500036023a003e009000a9
:1009b0008040780060542100014878000000000069
:1009c000880207000004e000fdff320030118000c3
:1009d0008040780070542100014878007054210054
:1009e000104078008040e9007054210001487800f0
:1009f00070542100104078000000fb0030c38800d4
:100a000000000000770207000004e000fdff320054
:100a10003011800080407800508621000148780025
:100a20000f003700000000006e0207000004e00025
:100a3000fdff32004e4090000000fb000080e80007
:100a40003111800081407800625421000000410093
:100a5000014878004e4090000040e8004047980070
:100a60004e4090008000fb00705421001040780040
:100a70000000fb000080e900808f5000e9ff350096
:100a800050862100104078000004e00006003a0083
:100a9000508621001040780080407800605421008a
:100aa000dc3d0700f70137000000eb00000f780085
:100ab0000c00370050862100904078001e0078001e
:100ac0004500dd0000017800605421000000410075
:100ad000fc3d070030c380000002b10030c3880035
:100ae0001e0fe80030c380000000e000f1ff3c0072
:100af0004086210010407800e14f500003003a008a
:100b0000300d200020118800de01370060642100d4
:100b1000703d07001e0090000000e80010079800dc
:100b200070642100104078000000fb0040c3880082
:100b300040c380000002b10040c388000c003700b1
:100b400040c380000002b10040c388001e00900036
:100b50004500dd00800078006064210000804000d6
:100b60005c3d07001e0090000000e80010079800a0
:100b700040c380000000e000f1ff3a000000eb00fd
:100b8000100798000000eb00009988000b00370068
:100b90000099800001998000626421008100410079
:100ba00091407800220521000000410001487800b2
:100bb000009980000000e80000998800706421001e
:100bc000104078008000fb0000998000808f50006a
:100bd000efff3c00df340700aa013700be009000a1
:100be000d00f2000808f5000a5013a0000000000c7
:100bf000fc0107000004e000fdff3200301180001e
:100c00003007980000000000f60107000004e00033
:100c1000fdff3200301180008040780060332100f9
:100c20000148780060332100104078000080fb000c
:100c300011052000810f5000c20032001105200074
:100c4000810f500019003c0071042000810f5000fa
:100c50008500320071042000810f500009003c0023
:100c600031042000810f50006a003200610420002e
:100c7000810f500078003200f00f50002c0032003d
:100c80007701370091042000810f5000830032006b
:100c900091042000810f50007c00350001052000e8
:100ca000810f50008e0032006d0137005108200086
:100cb000810f5000e700320051082000810f5000e2
:100cc0000a003c0081052000810f5000c70032005f
:100cd00091052000810f5000cd0032005105200009
:100ce000810f5000b80032005d01370081082000fc
:100cf000810f50001901320081082000810f50003f
:100d000004003c0061082000810f5000e200320026
:100d100053013700d1082000810f50002701320015
:100d2000e10f2000810f50003c0132004c013700e0
:100d300000000000ab0107000004e000fdff3200ee
:100d40003011800080407800203421000148780074
:100d500000000000a30107000004e000fdff3200d6
:100d60003011800080407800600421000148780044
:100d7000000000009b0107000004e000fdff3200be
:100d80003011800080407800700421000148780014
:100d900000000000930107000004e000fdff3200a6
:100da00030118000804078008004210001487800e4
:100db000000000008b0107000004e000fdff32008e
:100dc00030118000804078009004210001487800b4
:100dd00000000000830107000004e000fdff320076
:100de0003011800080407800a00421000148780084
:100df000000000007b0107000004e000fdff32005e
:100e00003011800080407800b00421000148780053
:100e10001501370000000000720107000004e00027
:100e2000fdff32003011800080407800f033210057
:100e300001487800000000006a0107000004e0009b
:100e4000fdff320030118000804078002034210006
:100e50000148780004013700803321008040eb0016
:100e60000148780000013700000000005d01070024
:100e70000004e000fdff3200301180008040780067
:100e80002034210001487800f7003700803321002a
:100e900031c0b30001487800f300370000000000c3
:100ea000500107000004e000fdff32003011800017
:100eb00080407800003421000148780000000000e4
:100ec000480107000004e000fdff320030118000ff
:100ed000804078001034210001487800e20037009b
:100ee000000000003f0107000004e000fdff3200a9
:100ef00030118000804078000034210001487800e3
:100f000000000000370107000004e000fdff320090
:100f10003011800080407800f033210001487800d3
:100f2000000000002f0107000004e000fdff320078
:100f30003011800080407800103421000148780092
:100f4000c900370000000000260107000004e0008f
:100f5000fdff320030118000804078000034210015
:100f600001487800000000001e0107000004e000b6
:100f7000fdff32003011800080407800f033210006
:100f80000148780000000000160107000004e0009e
:100f9000fdff3200301180008040780010342100c5
:100fa00001487800000000000e0107000004e00086
:100fb000fdff320030118000804078002034210095
:100fc00001487800a8003700000000000501070074
:100fd0000004e000fdff3200301180008040780006
:100fe00020342100014878009f00370000000000f5
:100ff000fc0007000004e000fdff3200301180001b
:1010000080407800f03321000148780096003700d6
:1010100000000000f30007000004e000fdff3200c4
:101020003011800080407800f033210001487800c2
:1010300000000000eb0007000004e000fdff3200ac
:101040003011800080407800203421000148780071
:101050008500370000000000e20007000004e00007
:10106000fdff32003011800080407800f033210015
:101070000148780000000000da0007000004e000ea
:10108000fdff3200301180008040780020342100c4
:10109000014878007400370000000000d10007000c
:1010a0000004e000fdff3200301180008040780035
:1010b000c00421000148780000000000c9000700ba
:1010c0000004e000fdff3200301180008040780015
:1010d000d00421000148780000000000c100070092
:1010e0000004e000fdff32003011800080407800f5
:1010f000e00421000148780000000000b90007006a
:101100000004e000fdff32003011800080407800d4
:10111000f00421000148780000000000b100070041
:101120000004e000fdff32003011800080407800b4
:10113000000521000148780000000000a900070018
:101140000004e000fdff3200301180008040780094
:101150001005210001487800430037000000eb0033
:10116000009988000d003700000000009d00070076
:101170000004e000fdff3200009980003111800082
:1011800081407800220521000000410001487800dc
:10119000009980000000e800009988009033210049
:1011a000104078000080fb00e300500000998000b0
:1011b000808f5000ecff3c002b0037000000eb005c
:1011c000009988000d00370000000000850007002e
:1011d0000004e000fdff3200009980003111800022
:1011e000814078002205210000004100014878007c
:1011f000009980000000e8000099880090332100e9
:10120000104078000080fb00e3005000009980004f
:10121000808f5000ecff3c001300370000000000fe
:10122000700007000004e000fdff32003011800074
:101230008040780000342100014878000000000060
:10124000680007000004e000fdff3200301180005c
:1012500080407800103421000148780002003700f7
:1012600000000000000000007033210011c0b30036
:1012700001487800a033210011c0b3000148780074
:101280000168a9000080fa004f03be004f02be00b3
:101290004f01be004f00be003600f90000400600be
:1012a0000000fa000080fa00004006000000fa008a
:1012b000000000000428a9000080fa000040060099
:1012c0000040da000000fe000a00fa00e20f5000c1
:1012d00034003e0000fc8000e10f500003003200ab
:1012e000e20f500011003a000c00370003222000ea
:1012f0000300e00001003a000040da002002e200b2
:10130000020035002822ef0021e2a8002342ab00b2
:101310000d003a002342a8000b00370003232000f1
:101320000300e00001003a000040da003002e20071
:10133000020035003822ef0031e2a8003342ab0052
:1013400001003a003342a800820178000b00370008
:101350003102fb00e10f500004003a002322ab00f1
:10136000feff3a0024118800030037003322ab004f
:10137000feff3a00a41188008301e9000300e000a9
:10138000f3ff3a00e10f500003003a002302ab00e4
:10139000feff32000b0037003302ab00feff3200cd
:1013a0000800370033002000b3bf9f00c0bf9f007c
:1013b000d1bf9f00e2bf9f006a805700f90007007d
:1013c0006fb99700020078000080fa000000060064
:1013d000001020002202b6000000e9004f00de00ed
:1013e000000006001011800061406000000006004f
:1013f0000011800066006000e60f500002003a0015
:10140000301180000000060030118000f00fb200a3
:101410000000060001118000e6806000e68f5000a9
:1014200001003200f00fb200201188000000060019
:10143000000005006022b800060220000000d00075
:101440008180d2000482d2008582d2000000a000f8
:101450000202520083825a0003003100020242005d
:1014600083824a000000a1000603e900f3ff3a006e
:1014700000000600e68747008e1f7800d0bf9f005f
:10148000e1bf9f000e0037005fba9700144078005c
:10149000efb99700934078000201e900814f5000b6
:1014a000040032000080fb008180fb00010050003e
:1014b0000600370066875700041fe800030fe800a6
:1014c0000200e000f0ff3a000000eb004f07780058
:1014d0006f00b100000006008001780002003700b4
:1014e000b15978000201e9000200e000fcff3a0077
:1014f0000000060080017800020037008159780062
:101500000201e9000200e000fcff3a0000000600d2
:101510000001780082017800030178003204e000c5
:10152000fcff3a0031417800825978000204e00063
:10153000fcff3a0000000600800078003104e00063
:10154000feff3a000080ea00008040000000060034
:1015500080017800060037000201e900b1427800fe
:1015600085597800030278000504e0000600320087
:10157000030278000200e000f7ff3a0002003700a3
:10158000005aeb000201e9000200e000fcff3a0013
:1015900000000600a1f4210000003700889fbe0073
:1015a00001047800b80090008084eb000118a300cb
:1015b0003a003200180190000198a30002003a009e
:1015c0000200e00035003a000190a00031049800cc
:1015d00080047800f90fb2000200e00002003a0037
:1015e00028009000000c7800ea8f540005003a00b3
:1015f0000178a30003003a0088007800d0002000a2
:10160000e6ff070018009000d8009000810f5000fe
:101610000b0032000000e800100498001800780069
:1016200009487800000ce80011c0b30060f7210001
:1016300001487800ea8f540018003a00050037008e
:1016400088007800094078001700070080047800bf
:1016500012003700380090000088a3000f0032000d
:1016600018019000a80090004800900016ff0700a5
:1016700098009000810f5000040032003800900064
:101680000003b300300498008084eb000000eb00fe
:101690001004980028009000000c780009007800e1
:1016a0004f04be00000006000200fa00889fbe0042
:1016b000a0ff9f0001047800380090000068a3009c
:1016c00033003a00e200600005003a000003b30076
:1016d00030049800110498000080eb002e003700c1
:1016e000d80490000900e00006003a001200200033
:1016f000e680570048009000f3fe070019049800a8
:1017000023003700a80090000100e00008003a0024
:1017100091f7210021049800010c7800210020009d
:1017200051049800110498000030a0003004980083
:1017300018019000a800900048009000e2fe070009
:10174000280090008080eb0011049800aff897000b
:1017500001487800000ce8002ff89700ea4f50008d
:101760000b003a00380090000088a3000800320007
:1017700018019000a800900048009000d2fe0700d9
:101780000000eb0010049800a8009000010c780005
:10179000aff897000100fb004f04be000080fa0084
:0c17a0000000060000c0da000000060097
:020000040000fa
:1017ac0000950000000000000000000001f900009e
:1017bc00000000000000000008870000040000008a
:1017cc000000000009af0000000000000100000054
:1017dc000a1b000000000000010000000cc3000008
:1017ec0001000000000000000daf0000020000002e
:1017fc000000000010ff00000000000000000000ce
:10180c0011ff0000000000000100000012ff0000aa
:10181c00000000000100000018ff000000000000a4
:10182c000100000019ff0000000000000100000092
:10183c0020ff0000000000000000000021ff00005d
:10184c00000000000000000026df00000100000086
:10185c0000000000377300000000000000000000d2
:10186c003a25000004000000000000003b250000a9
:10187c00000000000000000029ff00000400000030
:10188c000000000017ff0000000000000000000036
:10189c000a730000307200008c7a0000187300008c
:1018ac009e74000064790000c6790000303100009d
:1018bc003233000034350000363700003839000070
:1018cc00414200004344000045460000004c00002b
:1018dc0045430000543100002e43000053560000d5
:1018ec00004c000045430000543200002e43000021
:1018fc0053560000004c00004543000054330000d8
:10190c002e43000053560000004c000045430000dd
:10191c00543400002e43000053560000004c0000cd
:10192c0045430000543500002e4300005356000080
:10193c00004c000045430000543600002e430000cc
:10194c0053560000004c0000454300005437000083
:10195c002e43000053560000004c0000454300008d
:10196c00543800002e43000053560000000d0000b8
:10197c000a00000021230000242500002627000077
:10198c00282900002d4000005e5f0000607b0000f5
:10199c007d7e0000205c00002f3a00002a3f0000f2
:1019ac00223c00003e7c00002e2e000000000000b7
:020000040000fa
:1019bc000200fa00000f78009e00780001f6880003
:1019cc000080fa00000006000200fa000000eb00a4
:1019dc00000f780064003700e0eb21001e0040008f
:1019ec0011c0b30001487800c1a821001e00780086
:1019fc004900dd00808040001e017800200320009b
:101a0c008091b900c0ea210000004100f20f2000d3
:101a1c000281600090417800e0c1610002c1710058
:101a2c0002487800c808de00104190006041610057
:101a3c008140710011409800c1c821001e0078003f
:101a4c004900dd00808040001e017800200320004a
:101a5c008091b900e0ea210000004100f20f200063
:101a6c000281600090417800e0c1610002c1710008
:101a7c0002487800c808de00104190006041610007
:101a8c0081407100114098001e007800ec00b900f4
:101a9c008000780020ec2100808040001e0178003e
:101aac00200320008091b90000eb210000004100d0
:101abc00f20f20000281600090417800e0c16100cb
:101acc0002c1710002487800c808de001041900085
:101adc006041610081407100114098001e00780047
:101aec00ec00b90080007800a0ec210000804000e0
:101afc0010017800e1ff2f008100610001087800df
:101b0c001e007800ec00b90080007800a0ec2100e9
:101b1c000080400010017800d1ff2f00810061008f
:101b2c00010878001e007800ec00b90080007800f5
:101b3c0020ec2100008140000080eb008080eb0055
:101b4c000089be001e007800ec00b900800078000f
:101b5c0060ec2100008140000080eb008080eb00f5
:101b6c000089be001e0fe8001e0078000000e00097
:101b7c0099ff34000000eb0090f688006000b8007c
:101b8c0070f6880081f68800100020000080fa00b2
:101b9c00000006000000fa008bff07000080fa002e
:101bac00000006000400fa00000f780011079800ee
:101bbc001e007800900090001e00900001000100b3
:101bcc000080fa00000006000400fa00204798008c
:101bdc000040eb00004f7800180037001e80fb001f
:101bec00e1eb210000804000104078000004e00090
:101bfc0011003a009e80fb00200320008088b90071
:101c0c000003b000d1e82100008040009040780033
:101c1c002e40900080cf500007003a009e80fb00c1
:101c2c00200320008088b90080007800c0e82100e3
:101c3c0000804000050037001e4fe8001e40780071
:101c4c000004e000e5ff32000000eb000080fa0029
:101c5c00000006000400fa00204798002e40900077
:101c6c00d9ff0700000f78001e0078000000e0008c
:101c7c0002003a000000eb00030037001e00780061
:101c8c00606890000080fb000080fa0000000600f5
:101c9c000e00fa00004f9800510798006207980058
:101cac000000eb00000f78000e489000c6ff070004
:101cbc00100798001e0090000000e0003c003a0065
:101ccc000040eb0040479800360037004e40900033
:101cdc000080fb00e1eb2100008040001040780008
:101cec000004e0002c0032004e4090000080fb000d
:101cfc00e1eb2100008040008040eb0001487800bf
:101d0c004e4090000081fb00d1e821002003200010
:101d1c008090b900008040000003b0008e48900015
:101d2c00014878004e4090008080fb00200320008a
:101d3c008088b9008000780020eb210000804000f2
:101d4c005e019000f10f20008100610010417800cd
:101d5c00604161008140710001487800de00900014
:101d6c00c808de00104190006041610081407100a4
:101d7c00114098004e4090008080fb002003200012
:101d8c008088b90080007800c0e821000080400005
:101d9c0010079800060037004e4090000040e80005
:101dac00404798004e4090000004e000c7ff32000e
:101dbc001e0090000000e00002003a0030022000fb
:101dcc00a40037004e4090000080fb00ec00b900ee
:101ddc0080007800a0ec2100008040001001780009
:101dec00e1ff2f0081006100010878004e40900057
:101dfc000080fb00ec00b90080007800a0ec210012
:101e0c000080400010017800d1ff2f00810061009c
:101e1c00010878004e4090000080fb00ec00b900f7
:101e2c008000780020ec2100008140000080eb0055
:101e3c008080eb000089be004e4090000080fb00cb
:101e4c00ec00b9008000780060ec210000814000bb
:101e5c000080eb008080eb000089be001e0090002b
:101e6c006e019000f10f200081006100006990006c
:101e7c00604161008140710001689800ee009000a3
:101e8c00c808de001069900060416100814071005b
:101e9c00116898005e009000100078000000e000cf
:101eac00040032005e009000900078006e009000fc
:101ebc00010001005e009000a00090006e009000f8
:101ecc0001000100300798003e00900010007800df
:101edc000000e0000300320060002000000f7800da
:101eec00260037003e00900010009000610060005a
:101efc000000e000210032003e0090002000900025
:101f0c006101b8001e009000f10f200081006100fb
:101f1c00005a9000604262008140720001589800a3
:101f2c00c810de00105a90006042620081407200be
:101f3c0011589800f10f200081806100205a900008
:101f4c00604262008140720021589800c818de007f
:101f5c003059900060416100814071003158980007
:101f6c003e009000a000900000202000808f5000c8
:101f7c000200360040022000000f78001e0078009e
:101f8c000000e00009003a001e009000330007003a
:101f9c00000f78001e0078000000e00003003a00fb
:101fac001e00900067010700000f78001e007800eb
:101fbc000000e00017003a0090f680000000e000fe
:101fcc0023003a009e00900091f688001e019000bc
:101fdc00c24990008381fb00524a90000482fb00ae
:101fec004822dd008481710003007800e2499000f2
:101ffc008381fb00724990000281fb004811dd00d7
:10200c00028171008200780070f6880081f68800e9
:10201c000f0037004e4090000081fb00d1e82100fa
:10202c00200320008090b900008040000003b00025
:10203c008040eb00014878004e4090000080fb008f
:10204c00e1eb21000080400011c0b3000148780092
:10205c001e0078000080fa00000006001000fa0054
:10206c007007980010c0b300004f78000000eb0020
:10207c00100798007e009000e06090008180fb00cb
:10208c00706090000080fb004800dd000080700054
:10209c00400290007e009000806090008180fb00e8
:1020ac00106090000080fb004800dd000080700094
:1020bc00800078007e009000006990000281fb0097
:1020cc00106890000080fb004800dd0000007100eb
:1020dc006011b800040001000004a2000004e0003c
:1020ec000300320080002000100798001201370016
:1020fc007e009000c06090008180fb0050609000da
:10210c000080fb004800dd000080700000017800ba
:10211c006000b8000089be007e00900080609000d6
:10212c008180fb00106090000080fb004800dd0007
:10213c0000807000400798004e009000e0f893007b
:10214c0050c5b30080cf50007f003a004e00900085
:10215c00f0f89300a0cab30080cf50007a003a0088
:10216c004e009000e070900060c4b30080cf50002f
:10217c0027003a004e009000f070900010c4b3009d
:10218c0080cf500022003a004e00900080789000e2
:10219c0040c5b30080cf50001d003a004e009000a7
:1021ac009078900010c3b30080cf500018003a0014
:1021bc004e009000e060900090c2b30080cf5000c1
:1021cc0013003a007e00900090407800e0c0600060
:1021dc000148780090409000e0c0600011409800e9
:1021ec00a0409000e0c0600021409800b0409000fa
:1021fc00e0c06000314098007e00900021c0b30028
:10220c00616898000040eb00004f78004e003700ea
:10221c007e009000806090008180fb001060900038
:10222c000080fb004800dd00008070002005b0003d
:10223c009040780060c4b30080cf500042003a0058
:10224c007e009000806090008180fb001060900008
:10225c000080fb004800dd00008070003005b000fd
:10226c009040780010c4b30080cf500036003a0084
:10227c007e009000806090008180fb0010609000d8
:10228c000080fb004800dd00008070004005b000bd
:10229c009040780040c5b30080cf50002a003a002f
:1022ac007e009000806090008180fb0010609000a8
:1022bc000080fb004800dd00008070005005b0007d
:1022cc009040780030c3b30080cf50001e003a001d
:1022dc007e009000806090008180fb001060900078
:1022ec000080fb004800dd00008070002004b0007e
:1022fc009040780090c2b30080cf500012003a009a
:10230c007e00900090407800e0c0600001487800aa
:10231c0090409000e0c0600011409800a0409000f8
:10232c00e0c0600021409800b0409000e0c0600028
:10233c00314098007e00900031c0b3006168980075
:10234c000040eb00004f78001e4078000004e000d5
:10235c00790032007e009000806090008180fb004c
:10236c00106090000080fb004800dd0000807000d1
:10237c00500798005e009000e0f8930050c5b30041
:10238c0080cf500005003a005e009000f0f89300fa
:10239c00a0cab30080cf50000300320040002000e0
:1023ac0010079800640037005e009000e01bb0003e
:1023bc00300798007e0090008040eb006168980028
:1023cc000040eb0040479800500037003e00900062
:1023dc00804890008180fb00104a90000482fb0032
:1023ec004822dd008480700001017800a048900034
:1023fc008180fb00304890000080fb004800dd002d
:10240c0000807000800178007e009000f10f2000a9
:10241c0081006100104278006042620081407200cd
:10242c0001487800c810de00104290006042620043
:10243c008140720011409800f10f200081806100f2
:10244c00204290006042620081407200214098005e
:10245c00c818de003041900060416100814071007d
:10246c00314098003e009000c0409000414f9800d1
:10247c004e4890000080fb00ee0f500019003e000b
:10248c00110020000008dd0001052400810060001f
:10249c000100e0000b003a00018021008100600087
:1024ac000100e0000b003a00620060000000e00058
:1024bc000c0032007e00900011c0b30061689800df
:1024cc00080037007e00900021c0b30061689800be
:1024dc00040037007e00900031c0b30061689800a2
:1024ec00000000007e009000606890000004e00096
:1024fc000a003a003e00900070004000300798003f
:10250c004e4090000040e800404798004e4090003c
:10251c00e34f5000adff3600010037000000000013
:10252c007e009000606890000004e00002003a0019
:10253c0050002000100798001e0090000080fa0048
:10254c00000006001800fa00881f7800300f980071
:10255c000000eb00000f78000040eb006047980093
:10256c000040eb00704798003e089000e06090003f
:10257c008180fb00706090000080fb004800dd0053
:10258c0000807000400290003e0890008060900037
:10259c008180fb00106090000080fb004800dd0093
:1025ac0000807000800078003e0890009082fb0054
:1025bc00104390000683fb004833dd0086827200d6
:1025cc0005017800a04290008582fb00304090000d
:1025dc000080fb004800dd00008072008001780064
:1025ec003e089000806a90008582fb001068900085
:1025fc000080fb004800dd00008072000400010038
:10260c000004a2000004e00003003200800020005f
:10261c00000f78001f0337003e089000c060900048
:10262c008180fb00506090000080fb004800dd00c2
:10263c0000807000800178003e0990001282fb003f
:10264c00924290008582fb00c82add0005027200d0
:10265c0004007800224290000482fb00324190007a
:10266c000281fb004811dd0002017200820078003b
:10267c008089be003e089000806090008180fb0045
:10268c00106090000080fb004800dd0000807000ae
:10269c00400798004e009000e0f8930050c5b3003e
:1026ac0080cf500005003a004e009000f0f89300e7
:1026bc00a0cab30080cf50000300320030002000cd
:1026cc00000f7800470237003e08900080609000b1
:1026dc008180fb00106090000080fb004800dd0052
:1026ec0000807000e1002000e51f070050079800f3
:1026fc003e089000806090008180fb00106090008c
:10270c000080fb004800dd00008070006d00400080
:10271c00904078003e089000516898003e09900067
:10272c009281fb00124290000482fb004822dd00e3
:10273c008481710003007800a24190008381fb002a
:10274c00324190000281fb004811dd0002817100d2
:10275c00820078005e0190008001eb0000014100d6
:10276c00818149003e089000f10f2000810061003a
:10277c0040429000604262008140720041409800eb
:10278c00c810de005042900060426200814072002e
:10279c0051409800f10f2000818061006042900050
:1027ac00604262008140720061409800c818de00ef
:1027bc00704190006041610081407100714098004f
:1027cc003e089000806090008180fb0010609000bb
:1027dc000080fb004800dd000080700070004000ad
:1027ec00904078003e089000416898003e089000a8
:1027fc00806090008180fb00106090000080fb00e6
:10280c004800dd0000807000610120009c1f070063
:10281c006101b8003e089000f10f200081006100ba
:10282c00405a90006042620081407200415898000a
:10283c00c810de00505a9000604262008140720065
:10284c0051589800f10f200081806100605a90006f
:10285c00604262008140720061589800c818de0026
:10286c00705990006041610081407100715898006e
:10287c003e099000c25990008381fb00525a90008f
:10288c000482fb004822dd00848171000300780083
:10289c00e25990008381fb00725990000281fb0089
:1028ac004811dd000281710082007800e00f5000b9
:1028bc00e08f580021003a003e08900080609000a4
:1028cc008180fb00106090000080fb004800dd0060
:1028dc000080700041022000821f07000001be0032
:1028ec003e089000f10f200081006100405a9000da
:1028fc00604262008140720041589800c810de00ae
:10290c00505a900060426200814072005158980009
:10291c00f10f200081806100605a900060426200db
:10292c008140720061589800c818de007059900000
:10293c006041610081407100715898003e08900020
:10294c00c04090008180fb00504190000281fb0050
:10295c004811dd008280700001027800e040900098
:10296c008180fb00704090000080fb004800dd007f
:10297c0000807000800278003e0890004068900053
:10298c000081fb008001eb003e0b9000c65b9000c9
:10299c008783fb00565c90000884fb004844dd00f4
:1029ac008883730007007800e65b90008783fb0048
:1029bc00765b90000683fb004833dd0006837300d2
:1029cc0086007800809bb900828cb900880378005f
:1029dc00070343000010b800010343008600780091
:1029ec0004014000858148003e089000f10f200052
:1029fc0081006100004a90006042620081407200d8
:102a0c0001489800c810de00104a90006042620035
:102a1c008140720011489800f10f20008180610004
:102a2c00204a900060426200814072002148980068
:102a3c00c818de003049900060416100814071008f
:102a4c00314898003e089000806090008180fb0027
:102a5c00106090000080fb004800dd0000807000da
:102a6c0011012000061f0700800078003e0890002e
:102a7c00f20f200002816000a0699000e0c16100ab
:102a8c0002c1710022689800c808de00306990000d
:102a9c006041610081407100316898003e089000ef
:102aac00806090008180fb00106090000080fb0033
:102abc004800dd000080700031012000f01e07008e
:102acc008000eb0010079800210798001e00900072
:102adc00ae009000e00f5000e08f58000b003a0061
:102aec003e089000806090008180fb001060900098
:102afc000080fb004800dd00008070000102200017
:102b0c00f81e070010079800210798003e08900057
:102b1c00806090008180fb00106090000080fb00c2
:102b2c004800dd0000807000b1002000d41e0700ba
:102b3c00600798006e0090000000e0000500320075
:102b4c006e00900061006000004078000004e0001e
:102b5c000300320040022000000f780021013700f2
:102b6c003e089000a06890008180fb0030689000c7
:102b7c000080fb004800dd0000807000c500dd0017
:102b8c006e009000008040008000e9006e00900014
:102b9c0000017800110009008280d8008000eb0051
:102bac0070079800010f98005e0090006103b80058
:102bbc003e089000406890000081fb008001eb0013
:102bcc003e0a9000c45a90008582fb00545c900031
:102bdc000884fb004844dd00888272000500780000
:102bec00e45a90008582fb00745a90000482fb002a
:102bfc004822dd000482720084007800809ab900bb
:102c0c00828cb90088027800050242000010b800de
:102c1c0001024200840078000601400087814800d0
:102c2c007e0090008e0890000200400083804800d7
:102c3c001e019000ae0190000000510081805900ef
:102c4c00100f9800210f98003e08900050689000db
:102c5c000080fb008000eb000001be001e0890000d
:102c6c00ae089000f0f907000001be003e0890008d
:102c7c00f10f200081006100405290006042620020
:102c8c008140720041509800c810de0050529000f4
:102c9c00604262008140720051509800f10f200098
:102cac00818061006052900060426200814072003d
:102cbc0061509800c818de007051900060416100ae
:102ccc0081407100715098003e099000c2519000f3
:102cdc008381fb00525290000482fb004822dd00ed
:102cec008481710003007800e25190008381fb0025
:102cfc00725190000281fb004811dd0002817100cd
:102d0c008200780042ff200003002000820f500058
:102d1c00838f580004003e003e08900011c0b300a1
:102d2c00616898001b0037003e099000c25190006a
:102d3c008381fb00525290000482fb004822dd008c
:102d4c008481710003007800e25190008381fb00c4
:102d5c00725190000281fb004811dd00028171006c
:102d6c008200780042ff2f0003002000820f5000e9
:102d7c00838f580004003e003e08900021c0b30031
:102d8c0061689800030037003e08900031c0b30022
:102d9c00616898003e08900060689000e34f500016
:102dac004c003a003e089000806090008180fb004f
:102dbc00106090000080fb004800dd000080700077
:102dcc00c1022000471e07000001be003e08900013
:102ddc00f10f200081006100404a900060426200c7
:102dec008140720041489800c810de00504a9000a3
:102dfc00604262008140720051489800f10f20003f
:102e0c0081806100604a90006042620081407200e3
:102e1c0061489800c818de0070499000604161005c
:102e2c0081407100714898003e09900082499000e1
:102e3c008381fb00124a90000482fb004822dd00d3
:102e4c008481710003007800a24990008381fb000b
:102e5c00324990000281fb004811dd0002817100b3
:102e6c00820078007e0190008e09900000014100e4
:102e7c00818149003e089000f10f20008100610023
:102e8c000052900060426200814072000150980034
:102e9c00c810de0010529000604262008140720047
:102eac0011509800f10f2000818061002052900099
:102ebc00604262008140720021509800c818de0008
:102ecc003051900060416100814071003150980098
:102edc003e0037003e089000c0489000e0c0600003
:102eec0041489800d0489000e0c0600051489800dc
:102efc00e0489000e0c0600061489800f048900005
:102f0c00e0c06000714898003e0990008249900032
:102f1c008381fb00124a90000482fb004822dd00f2
:102f2c008481710003007800a24990008381fb002a
:102f3c00324990000281fb004811dd0002817100d2
:102f4c00820078003e099000a26990008381fb000a
:102f5c00326990000281fb004811dd000281710092
:102f6c004411de008001eb00000141008181490029
:102f7c003e089000f10f200081006100005290008b
:102f8c00604262008140720001509800c810de005f
:102f9c001052900060426200814072001150980003
:102fac00f10f20008180610020529000604262008d
:102fbc008140720021509800c818de0030519000fa
:102fcc00604161008140710031509800ee0090002a
:102fdc0000202000808f50000200360040022000ac
:102fec00000f78003e08900060689000e34f50009e
:102ffc000d0032001e0078000000e0009e00320040
:10300c004e009000a0c0900090c2b30080cf500042
:10301c00050032004e009000a0c0900080c2b300aa
:10302c0080cf500096003a004e009000b0509000b7
:10303c008180fb00405090000080fb004800dd00c8
:10304c00008070000000e0000a003a004e00900082
:10305c00a0c0900090c2b30080cf50000700320097
:10306c004e009000a0c0900080c2b30080cf5000f2
:10307c000200320030002000000f78001e007800a3
:10308c000000e000400032006e4090000004a200fe
:10309c000004e0003c00320010c0b3006047980010
:1030ac003e089000e06090008180fb007060900012
:1030bc000080fb004800dd0000807000c002900022
:1030cc003e089000806090008180fb0010609000b2
:1030dc000080fb004800dd000080700000027800da
:1030ec003e0990009281fb00124390000683fb0086
:1030fc004833dd008681710003007800a241900006
:10310c008381fb00324190000281fb004811dd00fd
:10311c0002817100820078004e019000a271900033
:10312c008381fb00327190000281fb004811dd00ad
:10313c00028171008001eb00000141008181490096
:10314c003e089000806890008180fb001068900021
:10315c000080fb004800dd000080700084007800d7
:10316c00050001000004a2000004e000030032008e
:10317c0080002000000f7800460037000000eb00b4
:10318c00000f78003b0037001e0078000000e000c4
:10319c003d0032007e4090000004a2000004e000dc
:1031ac003b00320010c0b300704798003e089000fe
:1031bc00e06090008180fb00706090000080fb005c
:1031cc004800dd0000807000c00290003e089000b6
:1031dc00806090008180fb00106090000080fb00fc
:1031ec004800dd0000807000000278003e0990006d
:1031fc009281fb00124390000683fb004833dd00f4
:10320c008681710003007800a24190008381fb004d
:10321c00324190000281fb004811dd0002817100f7
:10322c008200780066014000e08148003e08900072
:10323c00806890008180fb00106890000080fb008b
:10324c004800dd000080700084007800050001005b
:10325c000004a2000004e000030032008000200003
:10326c00000f78000b0037000000eb00000f780017
:10327c000000000007fd37000000000005003700cb
:10328c0000000000030037000000000001003700c0
:10329c00000000001e0078004f0478000080fa0047
:1032ac00000006000600fa00404798004e409000cf
:1032bc0045fa0700100798001e0090000000e0007f
:1032cc0002003a000080eb0047003700110020009c
:1032dc001e0090007a0a07008000eb001e00900090
:1032ec00770a07001e009000e06090008180fb00d0
:1032fc00706090000080fb004800dd0000807000d2
:10330c00b00090001e009000006990000281fb004c
:10331c00106890000080fb004800dd000000710088
:10332c00010001000040eb00004f78002100370045
:10333c009e80fb00200320008088b9000003b000b1
:10334c00d1e8210000804000904078004e40900071
:10335c0080cf500016003a001e80fb00e1eb2100ec
:10336c000080400011c0b300014878001e81fb00b2
:10337c00d1e82100200320008090b900008040009b
:10338c00e002b0008040eb00014878001e81fb0099
:10339c00d1e82100200320008090b900008040007b
:1033ac000003b0008040eb000148780004003700b7
:1033bc001e4fe8001e4078000004e000dcff3200e5
:1033cc0091f680001e009000808f500005003a009e
:1033dc006000b80070f6880081f688000000eb00f1
:1033ec0090f688000000eb000080fa000000060058
:1033fc000c00fa0040079800214f980010002000a4
:10340c00100798000040eb00404798000040eb008c
:10341c00504798004e00900090407800e0c2b300f6
:10342c0080cf500099003a004e0090000000e80058
:10343c0010407800604798006e4090000004e00057
:10344c0004003200ee409000f0c2b30080cf500078
:10345c0002003a0030c0b300a4003700ee409000e8
:10346c00e0c2b30080cf50008a003a004e009000ba
:10347c000080e80010407800604798006e40900093
:10348c000004e00004003200ee409000f0c2b300f3
:10349c0080cf500081003a0030c0b3009300370059
:1034ac001e009000e10f500055003a005e40900065
:1034bc000040e80050479800ee40900000c4b30074
:1034cc0080cf500004003600ee409000a0c5b30041
:1034dc0080cf50003c003600ee409000f0c2b300ac
:1034ec0080cf500004003600ee40900090c3b30033
:1034fc0080cf5000340036006e4090000004e00095
:10350c0031003500ee409000e0c2b30080cf500097
:10351c000c003a004e4090000004a2000004e000b1
:10352c000500320010c0b300404798000040eb008b
:10353c005047980024003700200020001007980006
:10354c00210037000040eb00004f780008003700e6
:10355c001e80fb0001cc28000080400090407800c9
:10356c006e40900080cf5000050032001e4fe800e6
:10357c001e407800f04f5000f5ff36000100370078
:10358c00000000001e407800f14f50000e003a0081
:10359c002e4890000004a2000004e00008003a004d
:1035ac00ee409000f0c3b30080cf50000600320014
:1035bc00ee409000a0c2b30080cf50000200320059
:1035cc0020002000100798004e4090000004e000fe
:1035dc00060032005e409000e34f500008003600b9
:1035ec002000200010079800050037005e40900076
:1035fc00e84f500002003600200020001007980011
:10360c001e009000e20f500025003a000040eb0035
:10361c00004f7800190037001e80fb0011cd2800e8
:10362c0000804000904078006e40900080cf5000a9
:10363c0011003a002e4890000004a2000004e000a3
:10364c0008003a00ee409000f0c3b30080cf500069
:10365c0009003200ee409000a0c2b30080cf5000b1
:10366c00050032000000eb00100798001e009000cf
:10367c00004078001d0037001e4fe8001e40780007
:10368c00e84f5000e4ff3600050037000000000052
:10369c0003003700000000000100370000000000ac
:1036ac004e00900010407800604798006e409000eb
:1036bc000080fb000000ea004f00de0000407800b4
:1036cc00ce0090008100e800410798000004e00063
:1036dc0004003200ee409000f0c2b30080cf5000e6
:1036ec006fff3a001e009000004078000080fa0046
:1036fc00000006000600fa00100798002107980049
:10370c000040eb00004f7800070037001e80fb00e4
:10371c00ae009000008040006002b0009e4090001f
:10372c00114098001e4fe8001e0090009040780059
:10373c00114798009e409000e0c2b30000c06800a2
:10374c000080fb000000ea004f00de000040780023
:10375c009e0090008100e800110798000004e00032
:10376c000f0032001e4090000004e0000c003200fc
:10377c009e409000f0c2b30080cf5000e3ff3a00af
:10378c00070037001e80fb00ae0090000080400058
:10379c006002b00001c2b300114098001e4fe80057
:1037ac001e407800e74f5000f6ff36009e40900018
:1037bc00e0c2b30080cf50001d003a000700370074
:1037cc001e80fb00ae009000008040006002b00044
:1037dc009e409000114098001e4fe8001e00900083
:1037ec0090407800114798001e4090000080fb002c
:1037fc000000ea004f00de00004078009e009000c0
:10380c008100e800110798000004e000ecff3a008a
:10381c00070037001e80fb00ae00900000804000c7
:10382c006002b00001c2b300114098001e4fe800c6
:10383c001e407800ea4f5000f6ff36000080fa0078
:10384c00000006001a00fa00200f9800310f9800b3
:10385c00420f98000000eb00100f98006800470022
:10386c000041eb00be0890002b010700300f9800c0
:10387c003e0890000000e00002003a000080eb00df
:10388c00d00037004e009000de00900070079800ca
:10389c00010f98006e009000e06090008180fb00aa
:1038ac00706090000080fb004800dd00008070001c
:1038bc00e00090006e009000006990000281fb0017
:1038cc00106890000080fb004800dd0000007100d3
:1038dc00010001000004e000090032004e089000d5
:1038ec006e0060000000e000050032006e009000e9
:1038fc00a1c1b300017098000080eb00b10037004b
:10390c002e0890000000e00005003a006e009000c8
:10391c0021c2b300017098000080eb00a9003700b1
:10392c008040eb003e089000b1fe07002047980055
:10393c002e409000e14f50001c003a004e009000c9
:10394c00de00900070079800010f98000000eb005b
:10395c00100f9800ae0890003e08900065ff07001d
:10396c002e0890007002b00080007800f201470031
:10397c006e01470068004700270020000003eb00a1
:10398c008002eb00030278008201780001017800cc
:10399c00ae08900084030700000f78001e0078002a
:1039ac000000e00006003200210037006e0090009d
:1039bc0031c1b300017098000080eb00810037002a
:1039cc004e089000680060000000e00006003a001d
:1039dc0068004700ae0890007c0007000004a200bd
:1039ec000004e0000d0032002e08900070089000da
:1039fc00300798006600470012c0b30080007800c2
:103a0c002e089000980c0700000f78004e089000cc
:103a1c000020a000400f98001a003700ce0890003c
:103a2c00b0ff2f0000806000400f98001500370099
:103a3c001e007800ef0f500012003a004e08900064
:103a4c00640060000000e0000e0032000000eb009b
:103a5c00000f7800ee0090002e08900041089800ae
:103a6c004e009000de0090002e0990000089be00f0
:103a7c004e009000de0090002e099000200198006e
:103a8c00310198001e0078000000e00010003a00a0
:103a9c004e089000640060000000e0000c00320052
:103aac000000eb00300798006600470013c0b3001d
:103abc000041eb00800078002e0890000104070004
:103acc00000f78004e0890000040a000400f9800b6
:103adc001e0078000000e00030003a004e08900014
:103aec0061006000004078000004e0000500320036
:103afc002e089000901890000110a000111898004a
:103b0c00050037002e08900010199000d1ff2f00ef
:103b1c0081006100111898004e089000620060004e
:103b2c000000e000050032002e0890009018900074
:103b3c000100a00011189800050037002e08900015
:103b4c0010199000e1ff2f008100610011189800fe
:103b5c004e089000700060000000e0000f00320082
:103b6c00210020006011b8002e089000f110070011
:103b7c00200798002e0090000000e00003003200a7
:103b8c00c0012000000f780004003700ce08900020
:103b9c00f0fe2f0000806000400f98001e0078009f
:103bac000000e000060032006e0090009e007800dd
:103bbc0081407800017098000080eb000100370014
:103bcc000000eb000080fa00000006000e00fa0076
:103bdc0050079800610798006e00900090009000cc
:103bec001000780020079800310798000000eb00c7
:103bfc00400798002e009000be009000e00f50008f
:103c0c00e08f580012003a005e00900020019000f6
:103c1c00c24990008381fb00524a90000482fb0051
:103c2c004822dd008481710003007800e249900095
:103c3c008381fb00724990000281fb004811dd007a
:103c4c0002817100820078002007980031079800eb
:103c5c006e009000f009900068014700e4004700f6
:103c6c000e80e800030278008201780001017800e0
:103c7c00800078005e009000ca060700000f7800f4
:103c8c001e0078000000e00002003a000040eb004b
:103c9c000b0037001e007800200890000000e000a8
:103cac0006003a001e007800500890000000e0006a
:103cbc0002003a000040eb000100370010c0b300d6
:103ccc000080fa00000006000600fa0020079800a9
:103cdc002e009000200890008000eb00008fbe00aa
:103cec001e0078009e009000c000dd000000200047
:103cfc00008fbe002e009000500890008000eb005a
:103d0c001e1f70001e9770001e0078009e00900011
:103d1c000080fa00000006000a00fa002007980054
:103d2c0031079800024f98003e009000fff5070005
:103d3c00000f78001e0078000000e00002003a003e
:103d4c000000eb007e00370062002000e1ec210057
:103d5c002e009000ddf507001e007800e10f5000ea
:103d6c0002003a003e009000750037003e009000c3
:103d7c000000e80090407800a0c3b30080cf500052
:103d8c0066003a003e009000104078008ef7070065
:103d9c00ae009000a00098002e0090002000900033
:103dac000000e00002003a000000eb006400370065
:103dbc002e00900020019000c24990008381fb00ee
:103dcc00524a90000482fb004822dd00848171007d
:103ddc0003007800e24990008381fb007249900057
:103dec000281fb004811dd00028171008200780025
:103dfc002e0190000089be003e0090000080e8007b
:103e0c00300798001e8fe9001e0078000000e000cb
:103e1c0002003a003e009000490037003e0090003e
:103e2c0090407800f0c2b30080cf50003b003a00c5
:103e3c003e0090000000e800300798001e0fe900db
:103e4c001e0078000000e00034003a003e009000b4
:103e5c003b003700be0090001e0090000080400028
:103e6c0090407800f0c2b30080cf500007003a00b9
:103e7c001e0090000000e800be0090000080400092
:103e8c00104078000004e0002b0032001e0090006f
:103e9c000000e00018003200be0090002e009000e0
:103eac00480007000000e000130032000e489000ac
:103ebc000004e0000e003200be0090002e009000c6
:103ecc00a70007000000e000020032000000eb0039
:103edc001b003700be0090002e0090003900070038
:103eec000000e000040032000000eb00140037007a
:103efc000000eb00120037001e0090000000e800ec
:103f0c0010079800be0090001e009000008040003a
:103f1c00300798001e0090001e0f10003e0090000d
:103f2c0009000700100798001e009000e10f4000e8
:103f3c00c8ff3a0001003700000000003e0090006e
:103f4c000080fa00000006000600fa002007980026
:103f5c000000eb00000f7800010037001e0fe80096
:103f6c002e00900090407800214798002e40900041
:103f7c000080fb000000ea004f00de0000407800eb
:103f8c00ae0090008100e800210798000004e000da
:103f9c0004003200ae409000f0c2b30080cf50005d
:103fac00eeff3a002e4090000004e00002003a00c0
:103fbc000080eb00010037001e0078000080fa0042
:103fcc00000006004600fa001027980021279800f0
:103fdc006e0f47008040eb002e20900004fd070080
:103fec00204798002e4090000004e00006003a00a4
:103ffc001e2090002000900031c1b3000170980089
:10400c000080eb00540037002e409000e14f500030
:10401c001c003a001e2090009000900010007800c8
:10402c0040079800510798000000eb0060079800cb
:10403c009e0078002e209000aefd0700710220003b
:10404c001e8040006c014700e8004700270020005c
:10405c00f60320008002eb00020278008101780058
:10406c00000178009e0078001e209000ce01070011
:10407c00300798003e0090000000e0002e00320057
:10408c00340037002e409000e34f500024003a00db
:10409c002e2090000000e80090407800e0c2b300b1
:1040ac0080cf5000020032000000eb002a003700e5
:1040bc001e2090009000900010007800400798009f
:1040cc00510798000000eb00600798006c01470056
:1040dc00e8004700660047001400200082017800c9
:1040ec0001017800800078001e209000ad050700cb
:1040fc00200798003e0090000000e00006003a0007
:10410c002e009000f0fe07001e2190000089be00da
:10411c000000eb00100037000080eb000e003700b1
:10412c001e2090002000900031c1b3000170980057
:10413c000080eb00080037001e007800d0009000d3
:10414c00400090001e2190000089be000000eb0092
:10415c00010037000080eb000080fa000000060030
:10416c005600fa00102f9800212f9800700047007d
:10417c00200798000000eb00502798000000eb008f
:10418c00002f98001e2890009000900010007800de
:10419c00000f9800110f98000e0890009e089000d8
:1041ac00e00f5000e08f580012003a001e289000db
:1041bc0020019000c24990008381fb00524a90007c
:1041cc000482fb004822dd0084817100030078002a
:1041dc00e24990008381fb00724990000281fb0050
:1041ec004811dd000281710082007800000f9800f8
:1041fc00110f98001e289000200090004017980086
:10420c008040eb002e28900079fc07006047980056
:10421c006e4090000004e000030032006e409000fd
:10422c00e34f500006003a001e289000200090003a
:10423c0031c1b300017098000080eb008e00370094
:10424c006e409000e14f50000d003a00ae0090001f
:10425c002e28900027fd0700a00420000e0040002f
:10426c0013c0b30002c1b300800078002e00900090
:10427c00140207000000e00007003a0008003700b5
:10428c001e2890002000900031c1b30001709800ee
:10429c000080eb00780037000080eb0076003700e0
:1042ac000e0a90009e0a90004e10900000017800bb
:1042bc00c24990008381fb00524b90000683fb00a7
:1042cc004833dd008681710003007800e2499000dc
:1042dc008381fb00724990000281fb004811dd00d4
:1042ec000281710082007800800f5200818f5a0089
:1042fc0003003a006000b800008fbe0003003700d6
:10430c000e0990009e099000028fbe000e089000ce
:10431c009e089000200f9800310f98000e08900016
:10432c009e0890001e2990000089be000e08900087
:10433c009e0890006027980071279800de2190005d
:10434c00020520000e014100c10420008e804000b7
:10435c006e004700030278008201780001017800aa
:10436c00800078001e2890000e050700400798007a
:10437c004e0090000000e00007003a001e2890005c
:10438c0020009000fe0090008140780001709800a1
:10439c000080eb00380037004e0090005048900031
:1043ac0000cf98004e0090007000900030279800cd
:1043bc004e00900000089000202798004e009000be
:1043cc0041fe070050079800610798004e089000c6
:1043dc00de0890001e2990000089be004e08900057
:1043ec00de08900060279800712798000000eb0011
:1043fc00002f98000000eb0050279800de21900061
:10440c00020520000e014100c10420008e804000f6
:10441c006e004700030278008201780001017800e9
:10442c00800078001e289000de04070040079800ea
:10443c000e0890009e0890001e2990000089be0076
:10444c001e28900020009000410420008e80400027
:10445c001e0278009e0290005e019000ee0190001a
:10446c00070007000000e000020032000000eb0033
:10447c00010037000080eb000080fa00000006000d
:10448c001200fa0030079800420798005307980072
:10449c006407980075079800010f98003e01900082
:1044ac00825990008381fb00125a90000482fb0019
:1044bc004822dd008481710003007800a25990002d
:1044cc008381fb00325990000281fb004811dd0012
:1044dc000281710082007800800078003e0090001c
:1044ec00006190000281fb00106090000080fb00d6
:1044fc004800dd0000007100010178008000eb0035
:10450c00f9f307003e009000806090008180fb0072
:10451c00106090000080fb004800dd0000807000ff
:10452c00000f78003e009000806090008180fb00be
:10453c00106090000080fb004800dd0000807000df
:10454c00b200200001022000e7f307001e007800f3
:10455c00e1c2b300014878001e00780001c1b3002d
:10456c00314898001e0078008040eb0041489800cc
:10457c00ce0090001e007800510898004e0190006b
:10458c00de01900000002000f1ff20000202780004
:10459c0003017800800178000100780003026200ba
:1045ac00000061008000eb00c000dd000000200076
:1045bc000001be006120b800000171008181710012
:1045cc004018de0001002000800078001e007800fa
:1045dc00210898001e0178006000b800600998005e
:1045ec00710998000e089000c04090001e007800e1
:1045fc00514898000e089000900090001e00780022
:10460c00710098000e089000900090001e00780039
:10461c00010898001e0078008000eb00110898003b
:10462c001e0078008000eb00310898001e00780016
:10463c008000eb00410898003e00900080609000e4
:10464c008180fb00106090000080fb004800dd00c2
:10465c0000807000800078003e00900000619000a7
:10466c000281fb00106090000080fb004800dd0020
:10467c00000071000002b0000202200093f307005a
:10468c003e009000806090008180fb0010609000e4
:10469c000080fb004800dd0000807000010220005b
:1046ac00010f40001e007800e1c2b30011409800d9
:1046bc00ee0090001e007800510898006e019000ea
:1046cc00fe01900000002000f1ff200002027800a3
:1046dc000301780080017800010078000302620079
:1046ec00000061008000eb00c000dd000000200035
:1046fc000001be006120b8000001710081817100d1
:10470c004018de0001002000800078001e007800b8
:10471c00210898004e019000de0190003e009000b0
:10472c006306070010079800210798003e009000d0
:10473c00c06090008180fb00506090000080fb0006
:10474c004800dd0000807000c00090000100a00057
:10475c00410098003e009000c06090008180fb00fa
:10476c00506090000080fb004800dd00008070006d
:10477c001e019000ae0190000288be008000eb008c
:10478c003e0090004e0507000004a2000004e0006b
:10479c00020032000000eb00010037001000200086
:1047ac000080fa00000006001400fa0020079800b0
:1047bc003107980042079800530798006407980047
:1047cc0075079800060f9800170f98000000eb0073
:1047dc00100798005e009000900090001000780088
:1047ec00e00f5000e08f580016003a002e009000a9
:1047fc0020019000c24990008381fb00524a900036
:10480c000482fb004822dd008481710003007800e3
:10481c00e24990008381fb00724990000281fb0009
:10482c004811dd0002817100820078005e01900069
:10483c000089be00030037000000000001003700b3
:10484c00000000000e80e8007e029000ee01900057
:10485c005e019000800078002e009000d1030700cc
:10486c00000f78001e009000ef0f50001d0032006a
:10487c001e009000fd0f500006003a002e00900024
:10488c0020009000d1c1b300017098001e00900070
:10489c008a0037007e0090000000e8007007980046
:1048ac001e00780030489000ef4f50000800320096
:1048bc001e00780030489000e84f50000400320091
:1048cc001e00780010407800fb4f400006003a00b4
:1048dc001e007800104078000004e000d9ff3a0078
:1048ec0001003700000000001e009000ef0f500088
:1048fc00040032001e007800104078000004e00034
:10490c0002003a00f00020006c0037001e089000f6
:10491c00680060000000e0000a0032001e00780011
:10492c00304890008080fb000e0890008080600072
:10493c001e007800304890000080fb00808f5000f3
:10494c00bdff3a001e089000804078001e007800e1
:10495c0001417800800078004e009000800507002f
:10496c000004e000b6ff32009e0078003e0090008c
:10497c007002b000b2002000d4f207002e009000ac
:10498c00a00090003e009000410898001e007800a6
:10499c00cdfc07003e0190004001980051019800a9
:1049ac003e009000d0009000400090003e0190002e
:1049bc0060019800710198003e0090008000eb00af
:1049cc00510898003e0090008000eb0061089800b0
:1049dc003e0190006000b800200998003109980051
:1049ec001e007800f0089000600890003e019000d6
:1049fc0000099800110998001e00780030489000ba
:104a0c008080fb003e009000011098003e0090005a
:104a1c0000109000700060000000e0000d003200fb
:104a2c001e007800d04890003e0090006160980015
:104a3c001e007800f00090003e00900011109800cd
:104a4c001e007800800890003e0090002110980015
:104a5c00080037001e007800b00890003e0090005f
:104a6c00111098001e007800c00890003e009000c5
:104a7c00211098007e0090000000e900700798005b
:104a8c003e009000fe009000710898002e009000ef
:104a9c0090009000100078003e0190000089be004c
:104aac002e00900090009000100078003e019000c5
:104abc0020019800310198000000eb000080fa0002
:104acc00000006000c00fa0030079800410798001f
:104adc00224f9800334f98000000eb00000f780035
:104aec004e0090008000eb0001087800ce00900092
:104afc003e009000500107000000e0001b003a004f
:104b0c003e4890000004e0000a0032003e00900095
:104b1c002000070010079800210798003e00900025
:104b2c0040089000007090000080fb00000f78009f
:104b3c00030037006000b8001007980021079800a8
:104b4c001e0078000000e0000a003a001e029000ef
:104b5c00ae0290002e499000ce0090003e009000d6
:104b6c007b000700000f7800020037006001200076
:104b7c00000f78003e009000400890009e007800e6
:104b8c0081407800017098001e0078000080fa00c7
:104b9c00000006000a00fa00400798000000eb0035
:104bac00000f78004e00900040089000100798000d
:104bbc004e009000400890002200200003002000ce
:104bcc00ec01070020079800310798002e00900098
:104bdc00be009000e00f5000e08f580003003a0038
:104bec0070012000000f78003f0037001e0090007d
:104bfc0060689000e14f500010003a008040eb00dc
:104c0c0084ff2000050020002e019000be019000c2
:104c1c001e009000470907000001be00f0ff2f00a6
:104c2c0001002000800f5100818f590026003a00ae
:104c3c0090002000000f7800230037001e00900029
:104c4c0060689000e24f500010003a008040eb008a
:104c5c0084ff2f00050020002e019000be01900063
:104c6c001e009000330907000001be00f0ff2f006a
:104c7c0001002000800f5100818f590012003a0072
:104c8c0090002000000f78000f0037008040eb00f0
:104c9c0084ff2f00f5ff20002e019000be01900034
:104cac001e009000230907000001be00f0ff2f003a
:104cbc00f1ff2000800f5100818f590002003a0053
:104ccc0090002000000f78001e0078000000e0002b
:104cdc0005003a002e019000be0190001e009000cd
:104cec0028020700000f7800110020001e00900021
:104cfc00f30307000004a2000004e00002003200ed
:104d0c0090002000000f78004e0090002e019000c3
:104d1c00be01900042009800530098004e00900095
:104d2c002e019000be019000620098007300980064
:104d3c001e007800804078001e00900001709800e2
:104d4c002e009000be0090000080fa0000000600cb
:104d5c002000fa00300f9800410f9800225f980055
:104d6c00640f9800750f98000000eb001007980076
:104d7c000000eb00700798003e0890009000900037
:104d8c001000780020079800310798003e0890002a
:104d9c0040089000400798003e089000900090005a
:104dac001000780050079800610798004e0890009a
:104dbc0010027800ee0147006a0147008e80e8007f
:104dcc006400470077020700000f78001e0078008f
:104ddc000000e00006003a003e08900040089000f9
:104dec00d1c1b30001709800d001200090003700b1
:104dfc003e08900071022000808040001e00780068
:104e0c00b2002000cff107001e007800ae589000d1
:104e1c00314898001e0078008040eb004148980013
:104e2c00ee0890001e007800510898006e09900062
:104e3c00fe09900000002000f1ff20000202780023
:104e4c000301780080017800010078000302620001
:104e5c00000061008000eb00c000dd0000002000bd
:104e6c000001be006120b800000171008181710059
:104e7c004018de0001002000800078001e00780041
:104e8c00210898001e0178006000b80060099800a5
:104e9c007109980000f680000000e0000300320069
:104eac0001f680007000470001000100ce50900018
:104ebc001e007800514898009e0890001e00780053
:104ecc00710098008e0890001e0078000108980070
:104edc009e0890001e007800310898008e08900003
:104eec001e007800410898003e0890006e09900062
:104efc00fe09900042009800530098003e08900074
:104f0c006e099000fe0990006200980073009800f2
:104f1c003e0890008000eb00510898003e0890007d
:104f2c008000eb00610898003e0990006000b8001a
:104f3c0020099800310998001e007800f0089000b4
:104f4c00600890003e099000000998001109980033
:104f5c001e007800304890008080fb003e089000d6
:104f6c00011098003e089000001090007000600046
:104f7c000000e0000d0032001e007800d0489000c8
:104f8c003e089000616098001e007800f0009000d0
:104f9c003e089000111098001e00780080089000c8
:104fac003e08900021109800080037001e00780081
:104fbc00b00890003e089000111098001e00780078
:104fcc00c00890003e089000211098004e089000f8
:104fdc00900078003e089000710898002e00900018
:104fec00be0090003e0990000089be002e0090008b
:104ffc00be0090003e0990002001980031019800fd
:10500c003e08900040089000c06090008180fb003a
:10501c00506090000080fb004800dd0000807000b4
:10502c00c00090000100a000410098001e009000fc
:10503c000080fa00000006002200fa00700f9800b1
:10504c00011798000000eb00000f98007e089000fc
:10505c009000900010007800400f9800510f9800bd
:10506c000000eb00600f98000000eb003007980088
:10507c007e08900040089000300f98007e08900049
:10508c009000900010007800100f9800210f9800ed
:10509c0010c0b300004f98000e10900090007800e4
:1050ac00210798005a0037000040eb00004f7800b1
:1050bc002e019000120798004e099000de09900016
:1050cc005207980063079800fc01470078014700dd
:1050dc00f0004700720047002e029000b10107005b
:1050ec00700798002e0090000000e8002007980040
:1050fc007e0090000000e0000d0032007e00900069
:10510c0010407800fb4f4000040032007e009000fd
:10511c00104078000004e00005003a001e4fe80043
:10512c000e4890009e40780080cf5000e2ff39007e
:10513c007e0090000000e0002f003a007e089000f6
:10514c004008900000017800c24990008381fb0068
:10515c00524a90000482fb004822dd0084817100d9
:10516c0003007800e24990008381fb0072499000b3
:10517c000281fb004811dd00028171008200780081
:10518c004e099000de099000820f5000838f58006a
:10519c0008003a007e08900040089000606890007b
:1051ac00e34f50000300320020002000300798002d
:1051bc00170037005e019000ee019000420f98003e
:1051cc00530f98007e08900040089000f8004700ac
:1051dc0012c0b3001c000700f70f500003003a0088
:1051ec002000200030079800090037001000200034
:1051fc0030079800060037000e4890009e4078005b
:10520c0080cf500002003a001000200030079800b8
:10521c003e0090000000e000a3ff32000e10900052
:10522c009e019000030878003e009000e10f5000b2
:10523c0002003a000000eb0001003700f0002000f3
:10524c000080fa00000006000a00fa00200798000f
:10525c0031079800024f98003e009000900090009b
:10526c00100078000001be002e00900041000700e5
:10527c00008fbe001e0078009e009000e00f5000d2
:10528c00e08f580002003a00700120003700370010
:10529c002e00900060689000e14f500008003a002a
:1052ac008040eb0084ff2000050020001e017800e8
:1052bc009e0190002e0090009e07070017003700fb
:1052cc002e00900060689000e24f500008003a00f9
:1052dc008040eb0084ff2f00050020001e017800a9
:1052ec009e0190002e009000920707000b003700e3
:1052fc002e00900060689000e34f500007003a00c9
:10530c008040eb0084ff2f00f5ff20001e01780089
:10531c009e0190002e009000860707003e00900032
:10532c0010017800900190008040eb001e02780084
:10533c009e0290002e0090007e0707003e00900019
:10534c003e1878002e1078000e4890000004e00003
:10535c00050032001e0178009e0190002e00900086
:10536c0088000700010037000000eb000080fa0005
:10537c00000006001600fa00000f9800120f9800ab
:10538c00230f98006000b800600798007107980020
:10539c000e089000606890000080fb00e10f500048
:1053ac000b003200e30f500012003a0070ff2f0088
:1053bc00f1ff20002007980031079800f0ff2f0024
:1053cc00f1ff2000400798005107980012003700a9
:1053dc0070ff200001002000200798003107980082
:1053ec00f0ff2f00010020004007980051079800a3
:1053fc000900370070ff2f000100200020079800e3
:10540c0031079800f0ff2f000100200040079800a2
:10541c0051079800000000001e099000ae09900092
:10542c001000200001002000800f5100818f5900d6
:10543c0004003e002000200001002000100f980006
:10544c00210f98001e099000ae099000028fbe003b
:10545c00410037001e0178009e0190000e0890005c
:10546c008203070060079800710798006e01900096
:10547c00fe0190004e009000de009000800f510065
:10548c00818f590003003a006000b800008fbe0005
:10549c00380037006e009000fe009000e00f5000c6
:1054ac00e08f580032003200120020000300200070
:1054bc001e0f41005e9749006e019000fe019000a6
:1054cc002e009000be009000800f5100818f59007b
:1054dc00140032000e099000c25190008381fb0031
:1054ec00525290000482fb004822dd00848171003e
:1054fc0003007800e25190008381fb007251900010
:10550c000281fb004811dd000281710082007800ed
:10551c0062004000e0804800be0f5000ae8f580083
:10552c0003003e002000200001002000008fbe0080
:10553c001e089000ae0890001e0178009e0190009d
:10554c00800f5100818f590003003a006000b800b1
:10555c00008fbe00070037001e0078009e009000f0
:10556c00e00f5000e08f5800baff3a0001003700fe
:10557c00000000001e0078009e0090000080fa00e1
:10558c00000006000e00fa00400798005207980031
:10559c00630798000000eb00000f78005e0190009c
:1055ac00ee0190004e009000c10207001007980019
:1055bc00210798008000eb004e009000c00107000e
:1055cc000004a2000004e000050032004e00900030
:1055dc0091c0b30001709800900020006f0037005c
:1055ec004e019000825990008381fb00125a90006a
:1055fc000482fb004822dd008481710003007800e6
:10560c00a25990008381fb00325990000281fb006b
:10561c004811dd0002817100820078008000780062
:10562c004e009000006190000281fb001060900021
:10563c000080fb004800dd000000710001017800d3
:10564c008000eb00a8ef07000040eb0060479800db
:10565c00290037004e009000e06090008180fb0034
:10566c00706090000080fb004800dd00008070003e
:10567c00500390004e009000806090008180fb00f1
:10568c00106090000080fb004800dd00008070007e
